:020000040800F2
:10000000385801200D1C00088D6D0008A96D0008EE
:10001000C56D0008E16D0008FD6D000800000000DE
:10002000000000000000000000000000196E000841
:10003000356E000800000000516E0008811B0008AA
:10004000691C0008691C0008691C0008691C00087C
:10005000691C0008691C0008691C0008691C00086C
:10006000691C0008691C0008691C0008691C00085C
:10007000691C0008691C0008691C0008691C00084C
:10008000691C0008691C0008691C0008691C00083C
:10009000691C0008691C0008691C0008691C00082C
:1000A000691C00080D130008691C0008691C000881
:1000B00055130008A1130008E9130008691C000883
:1000C000691C0008691C0008691C0008691C0008FC
:1000D000691C0008691C0008A1520008691C00087E
:1000E000691C0008691C00084D180008C1140008AC
:1000F00079140008691C0008691C0008691C0008C4
:10010000691C00084170000831140008691C0008CF
:10011000691C0008691C0008691C0008691C0008AB
:10012000691C0008691C0008691C00084D70000863
:10013000691C0008691C0008691C0008691C00088B
:10014000691C0008691C0008691C00083D180008AB
:10015000691C0008691C0008691C0008691C00086B
:10016000691C0008691C0008691C0008691C00085B
:10017000691C0008691C0008691C0008691C00084B
:10018000691C0008691C000810B5054C237833B9B8
:10019000044B13B10448AFF300800123237010BD5A
:1001A000100900200000000084290208084B10B547
:1001B0001BB108480849AFF300800848036803B939
:1001C00010BD074B002BFBD0BDE81040184700BF07
:1001D00000000000842902081409002008090020FA
:1001E0000000000080B584B000AFF8600B467A6074
:1001F000FB72FB7A013B032B52D801A252F823F089
:100200001102000835020008590200087D020008AA
:10021000FB68DB6A18460DF03FFB03461846796819
:100220000DF092FB034618460DF07AFD0246FB687E
:100230005A6336E0FB68DB6A18460DF02DFB034677
:10024000184679680DF080FB034618460DF068FDEE
:100250000246FB689A6324E0FB68DB6A18460DF0EF
:100260001BFB0346184679680DF06EFB03461846E3
:100270000DF056FD0246FB68DA6312E0FB68DB6AAC
:1002800018460DF009FB0346184679680DF05CFB33
:10029000034618460DF044FD0246FB681A6400E070
:1002A00000BF1037BD4680BD80B582B000AF78601A
:1002B0000B46FB70FB78012B06D17B685B6B184605
:1002C0000DF0EAFA03461FE0FB78022B06D17B68AB
:1002D0009B6B18460DF0E0FA034615E0FB78032B04
:1002E00006D17B68DB6B18460DF0D6FA03460BE0AF
:1002F000FB78042B06D17B681B6C18460DF0CCFAFA
:10030000034601E04FF0000318460837BD4680BDA4
:1003100090B5ADB002AFF860B9603B601346FB80AA
:100320000023C7F8A4300023C7F8A0300023C7F883
:100330009C300123C7F898300023A7F8963006F0C8
:10034000F7FF07F14403184606F062F8FB68B3F1C3
:10035000804F03D3FB68944A934207D9FB68934AC2
:10036000934211D9FB68924A93420DD8FB6C914A93
:10037000D2F88C20120E02F00102013202FB03F3CC
:100380005B00C7F8A4300CE03B6D8A4AD2F88C20A1
:10039000120E02F00102013202FB03F35B00C7F808
:1003A000A4303B68002B0ADDD7F8A430824A82FBD8
:1003B00003125211DB17D21A3B689A4201DA012369
:1003C000EEE01FE0D7F8A0300133C7F8A030D7F82F
:1003D000A420D7F8A03092FBF3F23B6892FBF3F332
:1003E000C7F89C30D7F89C30B3F5803F02DA002381
:1003F000C7F89830D7F8A0304FF6FE72934201DD6F
:100400000123CDE0D7F89830002BDBD1D7F8A4201A
:10041000D7F8A03092FBF3F2D7F89C3092FBF3F3BD
:100420003B60F86808F0CCFDFA88002300930220B6
:10043000B968002300F0C8FDD7F89C30013BFB638E
:10044000D7F8A0309BB2013B9BB23B870023A7F8B3
:10045000403000237B87002387F8423007F13803C0
:10046000F868194609F04CFB6023BB8400233B86E7
:100470000123FB8404233B8508237B864FF4807390
:10048000BB864FF40073FB8607F12403F868194616
:1004900009F00EFCF868002109F0F8FD07F12403CB
:1004A000F868194609F07EFCF868002109F00AFE98
:1004B00007F12403F868194609F0FCFCF8680021EC
:1004C00009F01EFE07F12403F868194609F078FDCB
:1004D000F868002109F030FEFB68384A934203D0E7
:1004E000FB68374A934211D107F11403184609F00B
:1004F00069FE4FF480433B8407F11403F868194602
:1005000009F038FEF868012109F07AFEFA8807F14F
:1005100054031046194608F0D1FB0023A7F8963083
:1005200025E0B7F896305B0007F1A802134433F8D2
:10053000543C012B16D1B7F8963010335B0007F10D
:10054000A802134433F8523C184608F0BDFE034697
:100550009CB2F86808F02EFF0346B86821461A4698
:1005600006F072FEB7F896300133A7F89630B7F868
:1005700096300F2BD5D9FB6800225A63FB68002206
:100580009A63FB680022DA63FB6800221A64F86849
:10059000012109F04DFBF868012109F069FB0023F6
:1005A0001846AC37BD4690BD00140040FF17004010
:1005B00000200040003802401F85EB510000014040
:1005C0000004014080B489B000AFF860B960114602
:1005D0001A460B46FB711346BB800023FB76FB6873
:1005E000DB78002B22D100237B610023FB61BB88D9
:1005F0000333002B00DA03339B107B61FB79FA682D
:1006000032339B0013449B683B610023FB6109E08C
:10061000BB681A683B691A60FB690133FB61BB6800
:100620000433BB60FA697B699A42F1D3FB7E1846BA
:100630002437BD465DF8047B704700BF80B489B0A5
:1006400000AFF860B9601346FB800023FB61FB88B4
:100650000333002B00DA03339B10BB61FB68D3F834
:10066000D0307B610023FB6109E07B691A68BB68BD
:100670001A60FB690133FB61BB680433BB60FA6934
:10068000BB699A42F1D3BB6818462437BD465DF872
:10069000047B704780B586B000AF78603960002376
:1006A000FB7400237B610023FB60FB6843F02003A5
:1006B000FB603B68DBB203F01F03DBB203F01F03F8
:1006C0009B01FA6822F4F8621343FB607B68DB68E5
:1006D000FA681A617B68DB681B69FB607B69013320
:1006E0007B617B69094A934200D906E0FB685B099C
:1006F00003F00103DBB2012BECD0032007F03AF941
:10070000FB7C18461837BD4680BD00BF400D030076
:1007100080B483B000AF78607B68DB685B6903F00E
:10072000010318460C37BD465DF8047B704700BFD7
:1007300080B582B000AF78607868FFF7E9FF0346C4
:10074000012B14BF01230023DBB218460837BD4636
:1007500080BD00BF80B485B000AF78600023FB602F
:100760007B68DB685B69FB607B68DB689B69FA68B8
:100770001340FB60FB6818461437BD465DF8047BE8
:10078000704700BF80B485B000AF78600023FB7372
:100790007B681B699B68BB603B7AC3F34103DBB298
:1007A000022B09D0032B04D0012B02D00323FB73AF
:1007B00005E00223FB7302E00123FB7300BFFB7B18
:1007C00018461437BD465DF8047B704780B487B087
:1007D00000AF78600023FB750023BB607B681B695A
:1007E0009B683B617B689B691B68FB603B7CC3F338
:1007F0004103DBB2022B04D0BB896FF30A03BB8138
:1008000005E0BB89032262F30A03BB8100BF7B685A
:100810009B69FA681A607B7A43F001037B727B68FC
:100820001B697A6812695168BA68D2431140BA6884
:100830000A435A60FB7D18461C37BD465DF8047BB1
:10084000704700BF80B487B000AF78603960002384
:10085000FB740023FB600023BB603B685B78012BCB
:100860000FD13B681B787A6804339B0013449B6864
:100870007B613B681B781A46012393409BB23B8106
:100880000EE03B681B787A6814339B0013445B6866
:100890007B613B681B781A46012393409BB27B81A6
:1008A0007B691B68FB607B7B23F07F03DBB2002B43
:1008B00027D13B689B689BB2C3F30A039AB2BB89FA
:1008C00062F30A03BB813B68DB7803F00303DAB20F
:1008D000BB7B62F38303BB733B68DB88DBB203F053
:1008E0000F03DAB2FB8962F38913FB81FB7B43F0D0
:1008F0001003FB737B7B43F080037B73FA687B6997
:100900001A607B681B697A681269D169BA680A4300
:10091000DA61FB7C18461C37BD465DF8047B7047E6
:1009200080B588B000AF786039600023FB77002382
:10093000BB6100237B6100233B613B685B78012B3B
:1009400040F0AB803B681B787A6804339B0013440B
:100950009B681B687B613B681B787A6804339B004B
:1009600013449B681B693B613B685B69002B09D1A1
:100970003B696FF312033B617B8A012262F3CC0374
:100980007B8222E03B685B69C3F312023B6962F33E
:1009900012033B613B685A693B689B6813445A1ECB
:1009A0003B689B68B2FBF3F39BB2C3F309039AB2B3
:1009B0007B8A62F3CC037B823B68DB78012B04D11A
:1009C000FB7C012262F34613FB743B681B787A6858
:1009D00004339B0013449B683A691A617B68DB7897
:1009E000012B0AD13B681B787A6804339B001344BF
:1009F0009B683A6812695A6115E03B68DB78012B05
:100A000011D03B685B69002B0DD03B681B781A4600
:100A100001239340BB617B681B697A681269516B43
:100A2000BA690A435A633B68DB78012B14D17B68AF
:100A30001B699B68FB60FB68C3F30D239BB203F04B
:100A40000103002B04D1FB7D43F02003FB7503E081
:100A5000FB7D43F01003FB75FB7D43F00403FB7546
:100A6000FB7D43F08003FB753B681B787A68043399
:100A70009B0013449B687A691A603B68DB78012B02
:100A800040F089803B68D9683B681A783B685B69AD
:100A90009BB27868FFF796FD7DE03B681B787A682B
:100AA00014339B0013445B681B687B613B681B78B5
:100AB0007A6814339B0013445B681B693B613B6895
:100AC0005B69002B0DD13B689B68C3F312023B6945
:100AD00062F312033B617B8A012262F3CC037B82C7
:100AE00020E03B685A693B689B6813445A1E3B6888
:100AF0009B68B2FBF3F39BB2C3F309039AB27B8A00
:100B000062F3CC037B827B8AC3F3C9039BB21A4690
:100B10003B689B6803FB02F3C3F312023B6962F379
:100B200012033B613B681B787A6814339B001344C3
:100B30005B683A691A617B68DB78012B09D13B68F5
:100B40001B787A6814339B0013445B683A68126917
:100B50005A613B68DB78012B0CD13B685B79002B39
:100B600004D0FB7D43F02003FB7503E0FB7D43F0E5
:100B70001003FB75FB7D43F00403FB75FB7D43F025
:100B80008003FB753B681B787A6814339B00134421
:100B90005B687A691A60FB7F18462037BD4680BDC6
:100BA00080B489B000AF786039600023FB77002300
:100BB000BB6100233B610023BB603B685B78012B7A
:100BC00070D17B689B697B617B691B683B617B693A
:100BD0001B69BB603B685B69002B09D13B7A6FF3F3
:100BE00006033B72BB7A012262F3C403BB7223E0AB
:100BF0003B685A693B689B689A420ED93B689A6881
:100C00003B685A613B689B68DBB203F07F03DAB252
:100C10003B7A62F306033B7209E03B685B69DBB237
:100C200003F07F03DAB23B7A62F306033B72BB7ACE
:100C3000012262F3C403BB72BA687B691A617B68E4
:100C4000DB78012B09D13B681B787A6804339B0061
:100C500013449B683A6812695A61FB7C43F00403B1
:100C6000FB74FB7C43F08003FB743A697B691A6078
:100C70007B68DB78002B76D13B685B69002B72D0F8
:100C80003B681B781A46012393401A46BB691343FD
:100C9000BB617B681B697A681269516BBA690A4348
:100CA0005A6360E03B681B787A6814339B001344F6
:100CB0005B681B683B613B681B787A6814339B0058
:100CC00013445B681B69BB603B685B69002B0FD1F9
:100CD0003B689B68DBB203F07F03DAB23B7A62F3D6
:100CE00006033B72BB7A012262F3C403BB7212E0BB
:100CF0003B689A683B685A613B689B68DBB203F0CB
:100D00007F03DAB23B7A62F306033B72BB7A0122BD
:100D100062F3C403BB723B681B787A6814339B0090
:100D200013445B68BA681A617B68DB78012B09D1D0
:100D30003B681B787A6814339B0013445B683A68FD
:100D400012695A61FB7C43F00403FB74FB7C43F0A3
:100D50008003FB743B681B787A6814339B00134450
:100D60005B683A691A60FB7F18462437BD465DF818
:100D7000047B704780B487B000AF7860396000238F
:100D8000FB750023FB603B685B78012B1CD13B6843
:100D90001B787A6804339B0013449B683B613B6972
:100DA0001B68FB60FB7B23F07F03DBB2002B03D0CF
:100DB000FB7B43F04003FB73BB7B43F02003BB731F
:100DC000FA683B691A6011E03B681B787A68143353
:100DD0009B0013445B683B613B691B68FB60BB7B0A
:100DE00043F02003BB73FA683B691A60FB7D184629
:100DF0001C37BD465DF8047B704700BF80B487B0E8
:100E000000AF786039600023FB740023FB603B680F
:100E10005B78012B08D13B681B787A6804339B0010
:100E200013449B687B6107E03B681B787A68143346
:100E30009B0013445B687B617B691B68FB60BB7B29
:100E40006FF34513BB733B68DB78032B03D03B6820
:100E5000DB78022B03D1FB7B43F01003FB73FA68B2
:100E60007B691A60FB7C18461C37BD465DF8047B25
:100E7000704700BF80B485B000AF78607B681B69A5
:100E80009B69FB607B681B69DB69FA681340FB6048
:100E9000FB681B0C18461437BD465DF8047B704791
:100EA00080B485B000AF78600B46FB70FB787A6841
:100EB00014339B0013445B689B68FB607B681B6971
:100EC0005B69FA681340FB60FB6818461437BD463F
:100ED0005DF8047B704700BF80B485B000AF7860D8
:100EE0007B681B699B69FB607B681B69DB69FA682F
:100EF0001340FB60FB689BB218461437BD465DF893
:100F0000047B704780B487B000AF786000233B61FA
:100F1000FB7C43F0C003FB74BB7C012262F3C4037F
:100F2000BB743B7C182262F306033B747B685B6DE9
:100F30003A691A617B68DB78012B16D10023FB60CC
:100F40007B685B6D7A6802F5B9625A617B685B6D9C
:100F50001B68FB60FB7B43F08003FB734FF0802337
:100F6000FB607B685B6DFA681A601C37BD465DF8F4
:100F7000047B704780B485B000AF78607B689B7A53
:100F8000002B1BD07B681B699B68FB603B7B03F0DD
:100F90000103DBB2002B11D07B6803F586731B685D
:100FA000BB603B7A6FF341033B723B7A6FF3000304
:100FB0003B727B68D3F80C31BA681A601437BD46AF
:100FC0005DF8047B704700BF80B584B000AF396026
:100FD00011461A460346FB710B46BB801346BB7194
:100FE0003B68254A934204D10120012105F0BAFA59
:100FF00022E03B68214A934204D10220012105F0FE
:10100000B1FA19E03B681E4A934204D10420012141
:1010100005F0A8FA10E03B681A4A934204D1082070
:10102000012105F09FFA07E03B68174A934203D17C
:101030001020012105F096FA07F10803184606F082
:1010400099F8BB88BB60FB793B733B7EBB73BB7974
:10105000FB7303237B7307F108033868194605F017
:10106000FBFFFB79012B04D1BB883868194606F0D9
:10107000DDF81037BD4680BD00000240000402408C
:1010800000080240000C02400010024080B483B00F
:1010900000AF78600B46FB70FB78002B06D0094947
:1010A000084BDA6B7B681343CB6306E00549054BBD
:1010B000DA6B7B68DB431340CB630C37BD465DF8CE
:1010C000047B7047002C014080B485B000AF78608D
:1010D0000023FB73084B5A6B7B681340002B02D034
:1010E0000123FB7301E00023FB73FB7B18461437DD
:1010F000BD465DF8047B7047002C014080B483B08E
:1011000000AF7860034A7B6893630C37BD465DF897
:10111000047B7047002C014080B485B000AFF860BC
:10112000B9607A603B60FB68BA681A60FB687A68ED
:101130005A60FB683A689A60FB6818461437BD46E7
:101140005DF8047B704700BF80B584B000AF786065
:1011500039600023FB607B681B681B6820331B68B9
:101160007A681268104698470346002B14BF012383
:101170000023DBB2002B02D0FB680133FB607B68ED
:101180005B681B6820331B687A6852681046984772
:101190000346002B14BF01230023DBB2002B02D037
:1011A000FB680133FB607B689B681B680C331B6822
:1011B0007A689268104639684FF07E529847034625
:1011C000002B14BF01230023DBB2002B02D0FB68ED
:1011D0000133FB60FB6818461037BD4680BD00BF79
:1011E00080B582B000AF78603960386805494FF04B
:1011F0007E5200F0A7FC02467B68DA600837BD46E5
:1012000080BD00BF000080BFB0B582B000AF786085
:101210007B68DB6818464FF000010CF051FD034677
:10122000002B24D07B681B681B6834331B687A68EA
:101230001268104698477B685B681B6838331B68E8
:101240007A685268104698477B689B681B68103321
:101250001C687B689D687B68DB684FF07E50194690
:101260000CF068FA034628461946A0474BE07B6815
:10127000DB6818464FF000010CF004FD0346002B1C
:1012800024D07B681B681B6838331B687A68126837
:10129000104698477B685B681B6834331B687A6824
:1012A0005268104698477B689B681B6810331C681F
:1012B0007B689D687B68DB6818464FF07E510CF0B8
:1012C0003BFA034628461946A0471CE07B681B688A
:1012D0001B6834331B687A681268104698477B682D
:1012E0005B681B6834331B687A68526810469847FD
:1012F0007B689B681B6810331B687A68926810468D
:101300004FF07E5198470837BD46B0BD80B500AF5D
:101310000E4B1B889BB21B099BB2002B05D00C4BBC
:101320001B68013B0A4A13600BE0084B1B889BB209
:101330001B099BB2002B04D1054B1B680133044AE7
:1013400013600248012108F0A5FF80BD00000140A4
:101350002C09002080B500AF4FF080431B889BB262
:101360001B099BB2002B05D00C4B1B68013B0B4AA1
:1013700013600CE04FF080431B889BB21B099BB2AB
:10138000002B04D1054B1B680133044A13604FF056
:101390008040012108F07EFF80BD00BF30090020A1
:1013A00080B500AF0E4B1B889BB21B099BB2002B74
:1013B00005D00C4B1B68013B0A4A13600BE0084B3D
:1013C0001B889BB21B099BB2002B04D1054B1B68E9
:1013D0000133044A13600248012108F05BFF80BD1D
:1013E000000400403409002080B500AF0E4B1B887C
:1013F0009BB21B099BB2002B05D00C4B1B68013B19
:101400000A4A13600BE0084B1B889BB21B099BB276
:10141000002B04D1054B1B680133044A13600248BA
:10142000012108F037FF80BD000800403809002086
:1014300080B500AF0E4B1B889BB21B099BB2002BE3
:1014400005D00C4B1B68013B0A4A13600BE0084BAC
:101450001B889BB21B099BB2002B04D1054B1B6858
:101460000133044A13600248012108F013FF80BDD4
:10147000000C00403C09002080B500AF0E4B1B88DB
:101480009BB21B099BB2002B05D00C4B1B68013B88
:101490000A4A13600BE0084B1B889BB21B099BB2E6
:1014A000002B04D1054B1B680133044A136002482A
:1014B000012108F0EFFE80BD00040140400900203A
:1014C00080B500AF0E4B1B889BB21B099BB2002B53
:1014D00005D00C4B1B68013B0A4A13600BE0084B1C
:1014E0001B889BB21B099BB2002B04D1054B1B68C8
:1014F0000133044A13600248012108F0CBFE80BD8D
:10150000001800404409002080B500AF044808F0EE
:1015100083FB0246034B1B681B041344184680BD23
:10152000000001402C09002080B500AF4FF0804042
:1015300008F072FB0246034B1B681B041344184659
:1015400080BD00BF3009002080B500AF044808F01E
:1015500063FB0246034B1B681B041344184680BD03
:10156000000400403409002080B500AF044808F0B2
:1015700053FB0246034B1B681B041344184680BDF3
:10158000000800403809002080B500AF044808F08A
:1015900043FB0246034B1B681B041344184680BDE3
:1015A000000C00403C09002080B500AF044808F062
:1015B00033FB0246034B1B681B041344184680BDD3
:1015C000000401404009002080B500AF044808F045
:1015D00023FB0246034B1B681B041344184680BDC3
:1015E000001800404409002090B59DB002AFF8609B
:1015F000B9601346FB800023A7F866300023A7F8E4
:101600006430F86807F0DCFCFA88002300930220BD
:10161000B9680123FFF7D8FCFA8807F120031046C8
:10162000194607F04BFB0023A7F8663025E0B7F812
:1016300066305B0007F16802134433F8483C012B25
:1016400016D1B7F8663010335B0007F16802134417
:1016500033F8463C184607F037FE03469CB2F8685C
:1016600007F0A8FE0346B86821461A4605F0ECFDCF
:10167000B7F866300133A7F86630B7F866300F2B3D
:10168000D5D91D4B1B681D4AA2FB03235B0E9BB2E1
:10169000013BA7F864304FF6FE73BB610023BB82A9
:1016A0000023BB830023FB8207F11403F86819466B
:1016B00008F026FAB7F86430F8681946012208F0F5
:1016C00089FAF86803210022002308F0F3FDF86886
:1016D0000121012208F0BAFDF868012108F0C8FADA
:1016E000F86807F023FC0346184607F0D7FD00F022
:1016F00055F86C37BD4690BD4000002029D94266A0
:1017000080B582B000AF78607B681E4A934203D1F7
:10171000FFF7FAFE034630E07B68B3F1804F03D158
:10172000FFF702FF034628E07B68174A934203D184
:10173000FFF70AFF034620E07B68144A934203D177
:10174000FFF712FF034618E07B68114A934203D16A
:10175000FFF71AFF034610E07B680E4A934203D15D
:10176000FFF722FF034608E07B680B4A934203D150
:10177000FFF72AFF034600E0002318460837BD465E
:1017800080BD00BF00000140000400400008004090
:10179000000C0040000401400018004080B500AF7C
:1017A000194B00221A60194B00221A60184B0022B4
:1017B0001A60184B00221A60174B00221A60174B50
:1017C00000221A60164B00221A601648002108F009
:1017D00015FA4FF08040002108F010FA124800215D
:1017E00008F00CFA1148002108F008FA104800210E
:1017F00008F004FA0F48002108F000FA0E48002112
:1018000008F0FCF980BD00BF2C0900203009002041
:1018100034090020380900203C090020400900203C
:10182000440900200000014000040040000800407E
:10183000000C0040000401400018004080B500AFDB
:10184000014806F0FDFC80BD4012002080B500AFCD
:10185000094B9B7A002B0AD0084A084B1B6823F0DF
:101860000603136005F038FD0348FFF783FB4FF4D0
:10187000802007F015FA80BD4012002010ED00E036
:1018800080B58AB000AF7860396000237B620023A6
:101890003B620023FB610023BB617B681B8A9BB218
:1018A0007B627B6A23F440537B623B68DB881A4689
:1018B0007B6A13437B627B6A9AB27B681A827B687D
:1018C0009B899BB27B627B6A23F4B05323F00C03A9
:1018D0007B623B689A883B681B8913439AB23B68DA
:1018E0005B8913439BB21A467B6A13437B627B6A14
:1018F0009AB27B689A817B689B8A9BB27B627B6A87
:1019000023F440737B623B689B891A467B6A1343CE
:101910007B627B6A9AB27B689A8207F10803184659
:1019200004F076FD7B68314A934203D07B68304AED
:10193000934202D17B693B6201E03B693B627B6879
:101940009B899BB29BB21BB2002B0CDA3A6A1346FE
:101950009B0013449A001A443B681B685B00B2FB6F
:10196000F3F3FB610BE03A6A13469B0013449A00C1
:101970001A443B681B689B00B2FBF3F3FB61FB69F5
:101980001C4AA2FB03235B091B017B627B6A1B09C8
:10199000642202FB03F3FA69D31ABB617B689B895B
:1019A0009BB29BB21BB2002B0CDABB69DB0032335B
:1019B000104AA2FB03235B0903F007037A6A13436F
:1019C0007B620BE0BB691B0132330A4AA2FB032393
:1019D0005B0903F00F037A6A13437B627B6A9AB256
:1019E0007B681A812837BD4680BD00BF00100140CA
:1019F000001401401F85EB5180B483B000AF7860C4
:101A00000B46FB70FB78002B08D07B689B899BB250
:101A100043F400539AB27B689A8107E07B689B8904
:101A20009BB223F400539AB27B689A810C37BD466F
:101A30005DF8047B704700BF80B483B000AF78606E
:101A40000B467B807B88C3F308039AB27B689A803D
:101A50000C37BD465DF8047B704700BF80B483B08F
:101A600000AF78607B689B889BB2C3F308039BB28E
:101A700018460C37BD465DF8047B704780B487B0CC
:101A800000AF78600B467B8013467B7000233B6180
:101A90000023FB600023BB6000237B617B687B61CC
:101AA0007B88DBB25B09DBB23B617B8803F01F0301
:101AB000FB60FB68012202FA03F3BB603B69012B68
:101AC00003D17B690C337B6109E03B69022B03D1B5
:101AD0007B6910337B6102E07B6914337B617B7827
:101AE000002B06D07B697A691168BA680A431A60CC
:101AF00006E07B697A691168BA68D2430A401A60C5
:101B00001C37BD465DF8047B704700BF80B485B0CC
:101B100000AF78600B467B800023FB737B681B88DB
:101B20009AB27B8813409BB2002B02D00123FB7337
:101B300001E00023FB73FB7B18461437BD465DF8BC
:101B4000047B704780B584B000AFF860B9607A60FC
:101B5000F868B9680CF096F80346002B01D0BB6812
:101B600009E07868F9680CF08DF80346002B01D085
:101B70007B6800E0FB6818461037BD4680BD00BF9B
:101B800080B400AF064BD3E90023013243F10003D8
:101B90000349C1E90023BD465DF8047B704700BFDF
:101BA0004809002080B500AF00F010F802460B464F
:101BB000104619464FF47A724FF000030CF0D0F83B
:101BC00002460B461046194680BD00BF80B400AFE8
:101BD000094BD3E90023921843EB0303990041EA30
:101BE00092719000121843EB010310461946BD464E
:101BF0005DF8047B704700BF4809002080B500AF46
:101C0000014805F07FF980BDACC5273780B582B0AB
:101C100000AF104B7B60104B3B6007E03B681A1D28
:101C20003A607A68111D796012681A603B680B4A45
:101C30009342F3D30A480B494FF000028842B8BFE1
:101C400040F8042BFADB04F005FD04F0CFFB083765
:101C5000BD4680BDC4360208000000200C090020EB
:101C6000100900203418002080B400AFFEE700BF48
:101C700080B584B000AF786007F108037868194632
:101C800006F072FA3B7A03F01F03012B0AD0022BF5
:101C90000FD0002B14D107F108037868194605F01E
:101CA0008DFE16E007F108037868194605F0D6FEA8
:101CB0000FE007F108037868194605F003FF08E014
:101CC0003B7A23F07F03DBB27868194607F012FDF8
:101CD00000BF002318461037BD4680BD80B584B0D4
:101CE00000AF78600B46FB70FB78002B44D17B681B
:101CF00003F55C73FB607B6893F81131032B4ED1C5
:101D0000FB68DA69FB689B689A4220D9FB68DA694C
:101D1000FB689B68D21AFB68DA617B68DB78012B71
:101D200006D1FB68DA68FB689B681A44FB68DA60D6
:101D3000FB68D968FB689A68FB68DB69934228BF37
:101D400013469BB278681A4607F028FE27E07B68A6
:101D5000D3F8E0351B69002B0AD07B6893F8123169
:101D6000032B05D17B68D3F8E0351B697868984769
:101D7000786807F027FE12E07B68D3F8E0359B69AE
:101D8000002B0CD07B6893F81231032B07D17B68B2
:101D9000D3F8E0359B69FA787868114698470023B4
:101DA00018461037BD4680BD80B584B000AF78605E
:101DB0000B46FB70FB78002B60D17B6803F58C73BE
:101DC000FB607B6893F81131022B6AD1FB68DA69FA
:101DD000FB689B689A421CD9FB68DA69FB689B68C0
:101DE000D21AFB68DA617B68DB78012B06D1FB68CD
:101DF000DA68FB689B681A44FB68DA60FB68DA689B
:101E0000FB68DB699BB2786811461A4607F0B2FDA1
:101E100047E0FB681B6AFA689268B3FBF2F102FBC9
:101E200001F29B1A002B14D1FB681A6AFB689B68AD
:101E30009A420ED3FB681A6AFB685B6A9A4208D220
:101E400078680021002207F095FDFB6800225A62A5
:101E500027E07B68D3F8E035DB68002B0AD07B688D
:101E600093F81231032B05D17B68D3F8E035DB689A
:101E700078689847786807F0BDFD12E07B68D3F872
:101E8000E0355B69002B0CD07B6893F81231032B93
:101E900007D17B68D3F8E0355B69FA78786811463A
:101EA0009847002318461037BD4680BD80B582B0E4
:101EB00000AF7860786800214022002307F048FBDB
:101EC000786880214022002307F042FB7B680122D2
:101ED00083F812217B68D3F8E4355B687A689278DE
:101EE00010469847002318460837BD4680BD00BFFE
:101EF00080B582B000AF78607B68D3F8E4351B69A9
:101F000098477B68032283F812210023184608377C
:101F1000BD4680BD80B582B000AF78607B6804228A
:101F200083F812217B68D3F8E435DB6898470023F7
:101F300018460837BD4680BD80B582B000AF7860D6
:101F40007B68D3F8E035DB69002B05D07B68D3F8DC
:101F5000E035DB6978689847002318460837BD46A6
:101F600080BD00BF80B582B000AF78600B46FB70CB
:101F70007B68D3F8E0351B68FA7878681146984793
:101F80007B68D3F8E4359B689847002318460837E8
:101F9000BD4680BD80B582B000AF78600B46FB7057
:101FA0007B68D3F8E0355B68FA7878681146984723
:101FB000002318460837BD4680BD00BF80B582B0FB
:101FC00000AF78607B68D3F8E0351B6A7868984783
:101FD000002318460837BD4680BD00BF80B582B0DB
:101FE00000AF78607B68D3F8E0355B6A7868984723
:101FF000002318460837BD4680BD00BF80B483B0BB
:1020000000AF786039600C37BD465DF8047B7047DF
:1020100080B582B000AF78607B68064A1A607B6842
:102020001033184603F0D6F97B6818460837BD46CA
:1020300080BD00BF4004020880B582B000AF786068
:1020400039607B681846FFF7E3FF7B68074A1A6030
:102050007B683A68C3F820217B680022C3F81C2102
:102060007B6818460837BD4680BD00BF5002020895
:1020700080B582B000AF78600B46FB707B6803F1DF
:102080001002FB781046194603F0B8F90346002BFE
:102090000CBF01230023DBB2002B0AD0FB780D2BF1
:1020A00013D17B68D3F81C315A1C7B68C3F81C2100
:1020B0000BE07B68D3F81C31002B06D1FB780D2B8D
:1020C00003D17B680122C3F81C210837BD4680BDBF
:1020D00080B582B000AF78607B681033184603F09B
:1020E000BDF90346002B0CBF01230023DBB21846C9
:1020F0000837BD4680BD00BF80B483B000AF7860B4
:102100007B68D3F81C3118460C37BD465DF8047B5C
:10211000704700BF80B582B000AF78607B68103335
:10212000184603F0B1F9034618460837BD4680BD8E
:1021300090B585B000AF786039607B681033184681
:1021400003F08CF90346002B14BF01230023DBB2FC
:10215000002B08D03B6800221A707B680022C3F86D
:102160001C21002354E00023FB604DE0FB683A682B
:10217000D4187B681033184603F086F903462370A1
:10218000FB683A6813441B780D2B02D0FB68FE2BCA
:102190001FDDFB683A68134400221A707B68103315
:1021A000184603F05BF90346002B14BF01230023FC
:1021B000DBB2002B04D07B680022C3F81C2106E0B0
:1021C0007B68D3F81C315A1E7B68C3F81C21FB685E
:1021D0001EE07B681033184603F040F90346002BDD
:1021E00014BF01230023DBB2002B0AD0FB683A683E
:1021F000134400221A707B680022C3F81C21FB687C
:1022000006E0FB680133FB60FB68FF2BAEDD0023BB
:1022100018461437BD4690BD80B582B000AF7860D7
:102220007B689B68012B06D17B685B681846FFF7CB
:1022300063FF034600E0002318460837BD4680BD13
:1022400080B582B000AF786039603B6800221A70B8
:102250007B689B68012B07D17B685B6818463968EF
:10226000FFF766FF034600E0002318460837BD4627
:1022700080BD00BF80B582B000AF78607B689B688E
:10228000012B06D17B685B681846FFF721FF0346E8
:1022900000E0002318460837BD4680BD80B582B0F7
:1022A00000AF78607B689B68012B06D17B685B6818
:1022B0001846FFF72FFF034600E0002318460837B3
:1022C000BD4680BD80B584B000AF78603960002322
:1022D000FB600DE07B681B6804331B68FA68396893
:1022E0000A441278786811469847FB680133FB600E
:1022F000FB683A6813441B78002BEBD11037BD46BE
:1023000080BD00BF90B587B002AFF860B9607A6059
:102310003B60FB6802229A60FB681B681C683B6894
:102320000093F868B9687A683B6AA0470346184684
:102330001437BD4690BD00BF90B587B002AFF860BE
:10234000B9607A603B60FB6801229A604FF492703A
:1023500013F00AF804462046F968FFF76DFEFB68A3
:102360005C60FB681B681C68FB685B681A467B68DE
:102370000093F868B9683B68A047034618461437CD
:10238000BD4690BD80B584B000AF78607B681B68A7
:102390000C331B68786898470346FB60FB68002B8A
:1023A00001D0FB6803E07B6801225A6000231846D5
:1023B0001037BD4680BD00BF80B584B000AF7860E7
:1023C0007B681B6810331B68786898470346FB607E
:1023D000FB68002B01D0FB6803E07B6802225A6097
:1023E000002318461037BD4680BD00BF80B584B0BD
:1023F00000AF78607B681B6814331B687868984767
:102400000346FB60FB68002B01D0FB6803E07B68A0
:1024100003225A60002318461037BD4680BD00BF16
:1024200080B584B000AF78607B681B6818331B6888
:10243000786898470346FB60FB68002B01D0FB6877
:1024400003E07B6804225A60002318461037BD461B
:1024500080BD00BF80B582B000AF786039607B6816
:102460005B68002B00D125E07B685B68022B07D1FD
:102470007B681B6804331B6878683968984719E0E3
:102480003B68012B06D17B681B6824331B68786886
:1024900098470FE03B68002B06D17B681B68283308
:1024A0001B687868984705E07B681B681C331B68CD
:1024B000786898470837BD4680BD00BF80B582B0B8
:1024C00000AF78607B685B68002B01D1002311E0CE
:1024D0007B685B68012B07D17B681B6808331B682E
:1024E00078689847034605E07B681B681B68786836
:1024F0009847034618460837BD4680BD80B582B070
:1025000000AF78607B681B682C331B6878680121FA
:1025100098470837BD4680BD80B582B000AF78606F
:102520007B681B682C331B68786800219847083744
:10253000BD4680BD90B583B000AF78607B681B68F6
:102540002C331C687B681B6830331B68786898479D
:102550000346002B0CBF01230023DBB27868194629
:10256000A0470C37BD4690BD80B582B000AF786003
:102570007B681B681B6878689847034618460837CD
:10258000BD4680BD80B582B000AF78607B681B68B7
:1025900004331B6878689847034618460837BD46D9
:1025A00080BD00BF80B584B000AFF860B9607A60CC
:1025B000FB681B681B68F868B9687A689847034627
:1025C00018461037BD4680BD80B582B000AF786038
:1025D00039607B681B6804331B68786839689847E2
:1025E0000837BD4680BD00BF80B582B000AF7860BF
:1025F0007B681B6808331B68786898470346184651
:102600000837BD4680BD00BF80B483B000AF78609E
:1026100040F6FF7318460C37BD465DF8047B7047E3
:10262000A0F10800F0E700BF80B483B000AF78608D
:10263000034B18460C37BD465DF8047B704700BF5E
:1026400033335340A0F10800EEE700BF80B483B0FD
:1026500000AF786040F6FF7318460C37BD465DF852
:10266000047B7047A0F10800F0E700BF80B483B09E
:1026700000AF7860034B18460C37BD465DF8047B0D
:10268000704700BF33335340A0F10800EEE700BFAE
:1026900080B483B000AF786040F6FF7318460C3703
:1026A000BD465DF8047B7047A0F10800F0E700BF6D
:1026B00080B483B000AF7860034B18460C37BD463A
:1026C0005DF8047B704700BF33335340A0F108002E
:1026D000EEE700BF80B483B000AF786040F6FF73D0
:1026E00018460C37BD465DF8047B7047A0F1080022
:1026F000F0E700BF80B483B000AF7860034B1846AA
:102700000C37BD465DF8047B704700BF3333534040
:10271000A0F10800EEE700BF80B483B000AF78609E
:1027200040F6FF7318460C37BD465DF8047B7047D2
:10273000A0F10800F0E700BF80B483B000AF78607C
:10274000034B18460C37BD465DF8047B704700BF4D
:1027500033335340A0F10800EEE700BF80B582B0EC
:1027600000AF786004484FF4805104F037FD034611
:1027700018460837BD4680BD0004024080B582B0CF
:1027800000AF786039603B68002B05D106484FF4F4
:10279000805104F04BFD04E003484FF4805104F0F5
:1027A00037FD0837BD4680BD0004024080B582B0C9
:1027B00000AF786004484FF4805104F0F5FC034604
:1027C00018460837BD4680BD0004024080B584B07D
:1027D00002AF786000230093002005494FF4805237
:1027E0000023FEF7F1FB002318460837BD4680BDE5
:1027F0000004024080B584B002AF786000230093EB
:10280000012005494FF480520023FEF7DDFB002331
:1028100018460837BD4680BD0004024080B584B02C
:1028200002AF786000230093002005494FF48052E6
:102830000123FEF7C9FB002318460837BD4680BDBB
:102840000004024080B584B002AF7860002300939A
:10285000002005494FF480520223FEF7B5FB002308
:1028600018460837BD4680BD0004024080B582B0DE
:1028700000AF786004484FF4004104F0AFFC034619
:1028800018460837BD4680BD0010024080B582B0B2
:1028900000AF786039603B68002B05D106484FF4E3
:1028A000004104F0C3FC04E003484FF4004104F08D
:1028B000AFFC0837BD4680BD0010024080B582B035
:1028C00000AF786004484FF4004104F06DFC03460B
:1028D00018460837BD4680BD0010024080B584B060
:1028E00002AF786000230093002005494FF40042B6
:1028F0000023FEF769FB012318460837BD4680BD5B
:102900000010024080B584B002AF786000230093CD
:10291000012005494FF400420023FEF755FB002338
:1029200018460837BD4680BD0010024080B584B00F
:1029300002AF786000230093002005494FF4004265
:102940000123FEF741FB012318460837BD4680BD31
:102950000010024080B584B002AF7860002300937D
:10296000002005494FF400420223FEF72DFB00230F
:1029700018460837BD4680BD0010024080B582B0C1
:1029800000AF786004484FF4804104F027FC034610
:1029900018460837BD4680BD0004024080B582B0AD
:1029A00000AF786039603B68002B05D106484FF4D2
:1029B000804104F03BFC04E003484FF4804104F004
:1029C00027FC0837BD4680BD0004024080B582B0B8
:1029D00000AF786004484FF4804104F0E5FB034603
:1029E00018460837BD4680BD0004024080B584B05B
:1029F00002AF786000230093002005494FF4804225
:102A00000023FEF7E1FA002318460837BD4680BDD3
:102A10000004024080B584B002AF786000230093C8
:102A2000012005494FF480420023FEF7CDFA002330
:102A300018460837BD4680BD0004024080B584B00A
:102A400002AF786000230093002005494FF48042D4
:102A50000123FEF7B9FA002318460837BD4680BDAA
:102A60000004024080B584B002AF78600023009378
:102A7000002005494FF480420223FEF7A5FA002307
:102A800018460837BD4680BD0004024080B582B0BC
:102A900000AF786004484FF4004104F09FFB034608
:102AA00018460837BD4680BD0004024080B582B09C
:102AB00000AF786039603B68002B05D106484FF4C1
:102AC000004104F0B3FB04E003484FF4004104F07C
:102AD0009FFB0837BD4680BD0004024080B582B030
:102AE00000AF786004484FF4004104F05DFB0346FA
:102AF00018460837BD4680BD0004024080B584B04A
:102B000002AF786000230093002005494FF4004293
:102B10000023FEF759FA002318460837BD4680BD4A
:102B20000004024080B584B002AF786000230093B7
:102B3000012005494FF400420023FEF745FA002327
:102B400018460837BD4680BD0004024080B584B0F9
:102B500002AF786000230093002005494FF4004243
:102B60000123FEF731FA002318460837BD4680BD21
:102B70000004024080B584B002AF78600023009367
:102B8000002005494FF400420223FEF71DFA0023FE
:102B900018460837BD4680BD0004024080B582B0AB
:102BA00000AF786004484FF4004104F017FB03467F
:102BB00018460837BD4680BD0000024080B582B08F
:102BC00000AF786039603B68002B05D106484FF4B0
:102BD000004104F02BFB04E003484FF4004104F0F3
:102BE00017FB0837BD4680BD0000024080B582B0AB
:102BF00000AF786004484FF4004104F0D5FA034672
:102C000018460837BD4680BD0000024080B584B03C
:102C100002AF786000230093002005494FF4004282
:102C20000023FEF7D1F9002318460837BD4680BDC2
:102C30000000024080B483B000AF786001231846E2
:102C40000C37BD465DF8047B704700BF80B584B08B
:102C500002AF786000230093002005494FF4004242
:102C60000123FEF7B1F9002318460837BD4680BDA1
:102C70000000024080B584B002AF7860002300936A
:102C8000002005494FF400420223FEF79DF900237E
:102C900018460837BD4680BD0000024080B582B0AE
:102CA00000AF786004484FF4005104F097FA0346EF
:102CB00018460837BD4680BD0004024080B582B08A
:102CC00000AF786039603B68002B05D106484FF4AF
:102CD000005104F0ABFA04E003484FF4005104F053
:102CE00097FA0837BD4680BD0004024080B582B027
:102CF00000AF786004484FF4005104F055FA0346E1
:102D000018460837BD4680BD0004024080B584B037
:102D100002AF786000230093002005494FF4005271
:102D20000023FEF751F9002318460837BD4680BD41
:102D30000004024080B483B000AF786001231846DD
:102D40000C37BD465DF8047B704700BF80B584B08A
:102D500002AF786000230093002005494FF4005231
:102D60000123FEF731F9002318460837BD4680BD20
:102D70000004024080B584B002AF78600023009365
:102D8000002005494FF400520223FEF71DF90023ED
:102D900018460837BD4680BD0004024080B582B0A9
:102DA00000AF786004484FF4006104F017FA03465E
:102DB00018460837BD4680BD000C024080B582B081
:102DC00000AF786039603B68002B05D106484FF4AE
:102DD000006104F02BFA04E003484FF4006104F0B2
:102DE00017FA0837BD4680BD000C024080B582B09E
:102DF00000AF786004484FF4006104F0D5F9034651
:102E000018460837BD4680BD000C024080B584B02E
:102E100002AF786000230093002005494FF4006260
:102E20000023FEF7D1F8002318460837BD4680BDC1
:102E3000000C024080B483B000AF786001231846D4
:102E40000C37BD465DF8047B704700BF80B584B089
:102E500002AF786000230093002005494FF4006220
:102E60000123FEF7B1F8002318460837BD4680BDA0
:102E7000000C024080B584B002AF7860002300935C
:102E8000002005494FF400620223FEF79DF800235D
:102E900018460837BD4680BD000C024080B582B0A0
:102EA00000AF786004484FF4806104F097F903465E
:102EB00018460837BD4680BD000C024080B582B080
:102EC00000AF786039603B68002B05D106484FF4AD
:102ED000806104F0ABF904E003484FF4806104F032
:102EE00097F90837BD4680BD000C024080B582B01E
:102EF00000AF786004484FF4806104F055F9034650
:102F000018460837BD4680BD000C024080B584B02D
:102F100002AF786000230093002005494FF48062DF
:102F20000023FEF751F8002318460837BD4680BD40
:102F3000000C024080B483B000AF786001231846D3
:102F40000C37BD465DF8047B704700BF80B584B088
:102F500002AF786000230093002005494FF480629F
:102F60000123FEF731F8002318460837BD4680BD1F
:102F7000000C024080B584B002AF7860002300935B
:102F8000002005494FF480620223FEF71DF800235C
:102F900018460837BD4680BD000C024080B582B09F
:102FA00000AF78600448022104F018F9034618467F
:102FB0000837BD4680BD00BF0004024080B582B026
:102FC00000AF786039603B68002B04D105480221CE
:102FD00004F02CF903E00348022104F019F9083742
:102FE000BD4680BD0004024080B582B000AF78606D
:102FF0000448022104F0D8F8034618460837BD46B5
:1030000080BD00BF0004024080B584B002AF78608C
:10301000002300930020054902220023FDF7D4FF7E
:10302000002318460837BD4680BD00BF000402409B
:1030300080B584B002AF7860002300930120054979
:1030400002220023FDF7C0FF002318460837BD46C3
:1030500080BD00BF0004024080B584B002AF78603C
:10306000002300930020054902220123FDF7ACFF55
:10307000002318460837BD4680BD00BF000402404B
:1030800080B584B002AF786000230093002005492A
:1030900002220223FDF798FF002318460837BD4699
:1030A00080BD00BF0004024080B582B000AF7860F0
:1030B0000448102104F092F8034618460837BD462C
:1030C00080BD00BF0000024080B582B000AF7860D4
:1030D00039603B68002B04D10548102104F0A6F8A4
:1030E00003E00348102104F093F80837BD4680BD83
:1030F0000000024080B582B000AF78600448102123
:1031000004F052F8034618460837BD4680BD00BF9C
:103110000000024080B584B002AF786000230093C5
:103120000020054910220023FDF74EFF002318461A
:103130000837BD4680BD00BF0000024080B584B0A6
:1031400002AF78600023009301200549102200237C
:10315000FDF73AFF002318460837BD4680BD00BF83
:103160000000024080B584B002AF78600023009375
:103170000020054910220123FDF726FF00231846F1
:103180000837BD4680BD00BF0000024080B584B056
:1031900002AF78600023009300200549102202232B
:1031A000FDF712FF002318460837BD4680BD00BF5B
:1031B0000000024080B582B000AF78600448012171
:1031C00004F00CF8034618460837BD4680BD00BF22
:1031D0000008024080B582B000AF786039603B687B
:1031E000002B04D10548012104F020F803E0034836
:1031F000012104F00DF80837BD4680BD00080240EB
:1032000080B582B000AF78600448012103F0CCFFA4
:10321000034618460837BD4680BD00BF000802407F
:1032200080B584B002AF7860002300930020054988
:1032300001220023FDF7C8FE002318460837BD46CB
:1032400080BD00BF0008024080B584B002AF786046
:10325000002300930120054901220023FDF7B4FE5D
:10326000002318460837BD4680BD00BF0008024055
:1032700080B584B002AF7860002300930020054938
:1032800001220123FDF7A0FE002318460837BD46A2
:1032900080BD00BF0008024080B584B002AF7860F6
:1032A000002300930020054901220223FDF78CFE34
:1032B000002318460837BD4680BD00BF0008024005
:1032C00080B582B000AF786004484FF4805103F0BD
:1032D00085FF034618460837BD4680BD00100240F2
:1032E00080B582B000AF786039603B68002B05D1B3
:1032F00006484FF4805103F099FF04E003484FF46F
:10330000805103F085FF0837BD4680BD00100240A4
:1033100080B582B000AF786004484FF4805103F06C
:1033200043FF034618460837BD4680BD00100240E3
:1033300080B584B002AF7860002300930020054977
:103340004FF480520023FDF73FFE00231846083754
:10335000BD4680BD0010024080B584B002AF7860E9
:1033600000230093012005494FF480520023FDF70C
:103370002BFE002318460837BD4680BD00100240D2
:1033800080B584B002AF7860002300930020054927
:103390004FF480520123FDF717FE0023184608372B
:1033A000BD4680BD0010024080B584B002AF786099
:1033B00000230093002005494FF480520223FDF7BB
:1033C00003FE002318460837BD4680BD00100240AA
:1033D00080B582B000AF78600448202103F0FEFE83
:1033E000034618460837BD4680BD00BF00000240B6
:1033F00080B582B000AF786039603B68002B04D1A3
:103400000548202103F012FF03E00348202103F0C8
:10341000FFFE0837BD4680BD0000024080B582B087
:1034200000AF78600448202103F0BEFE0346184632
:103430000837BD4680BD00BF0000024080B584B0A3
:1034400002AF78600023009300200549202200236A
:10345000FDF7BAFD002318460837BD4680BD00BF02
:103460000000024080B584B002AF78600023009372
:103470000120054920220023FDF7A6FD0023184660
:103480000837BD4680BD00BF0000024080B584B053
:1034900002AF786000230093002005492022012319
:1034A000FDF792FD002318460837BD4680BD00BFDA
:1034B0000000024080B584B002AF78600023009322
:1034C0000020054920220223FDF77EFD0023184637
:1034D0000837BD4680BD00BF0000024080B582B005
:1034E00000AF78600448042103F078FE03461846D4
:1034F0000837BD4680BD00BF0004024080B582B0E1
:1035000000AF786039603B68002B04D10548042186
:1035100003F08CFE03E00348042103F079FE083732
:10352000BD4680BD0004024080B582B000AF786027
:103530000448042103F038FE034618460837BD4608
:1035400080BD00BF0004024080B584B002AF786047
:10355000002300930020054904220023FDF734FDD9
:10356000002318460837BD4680BD00BF0004024056
:1035700080B584B002AF7860002300930120054934
:1035800004220023FDF720FD002318460837BD461E
:1035900080BD00BF0004024080B584B002AF7860F7
:1035A000002300930020054904220123FDF70CFDB0
:1035B000002318460837BD4680BD00BF0004024006
:1035C00080B584B002AF78600023009300200549E5
:1035D00004220223FDF7F8FC002318460837BD46F5
:1035E00080BD00BF0004024080B582B000AF7860AB
:1035F0000448802103F0F2FD034618460837BD4613
:1036000080BD00BF0010024080B582B000AF78607E
:1036100039603B68002B04D10548802103F006FE89
:1036200003E00348802103F0F3FD0837BD4680BD69
:103630000010024080B582B000AF7860044880215D
:1036400003F0B2FD034618460837BD4680BD00BFF3
:103650000010024080B584B002AF78600023009370
:103660000020054980220023FDF7AEFC0023184608
:103670000837BD4680BD00BF0010024080B584B051
:1036800002AF7860002300930120054980220023C7
:10369000FDF79AFC002318460837BD4680BD00BFE1
:1036A0000010024080B584B002AF78600023009320
:1036B0000020054980220123FDF786FC00231846DF
:1036C0000837BD4680BD00BF0010024080B584B001
:1036D00002AF786000230093002005498022022376
:1036E000FDF772FC002318460837BD4680BD00BFB9
:1036F0000010024080B582B000AF786004484FF4FB
:10370000806103F06BFD034618460837BD4680BD57
:103710000010024080B582B000AF786039603B682D
:10372000002B05D106484FF4806103F07FFD04E0D3
:1037300003484FF4806103F06BFD0837BD4680BD40
:103740000010024080B582B000AF786004484FF4AA
:10375000806103F029FD034618460837BD4680BD49
:103760000010024080B584B002AF7860002300935F
:10377000002005494FF480620023FDF725FC00235B
:1037800018460837BD4680BD0010024080B584B0A1
:1037900002AF786000230093012005494FF4806256
:1037A0000023FDF711FC002318460837BD4680BDF5
:1037B0000010024080B584B002AF7860002300930F
:1037C000002005494FF480620123FDF7FDFB002333
:1037D00018460837BD4680BD0010024080B584B051
:1037E00002AF786000230093002005494FF4806207
:1037F0000223FDF7E9FB002318460837BD4680BDCC
:103800000010024080B582B000AF7860044801210A
:1038100003F0E4FC034618460837BD4680BD00BFF0
:103820000004024080B582B000AF786039603B6828
:10383000002B04D10548012103F0F8FC03E0034804
:10384000012103F0E5FC0837BD4680BD00040240BD
:1038500080B582B000AF78600448012103F0A4FC79
:10386000034618460837BD4680BD00BF000402402D
:1038700080B584B002AF7860002300930020054932
:1038800001220023FDF7A0FB002318460837BD46A0
:1038900080BD00BF0004024080B584B002AF7860F4
:1038A000002300930120054901220023FDF78CFB32
:1038B000002318460837BD4680BD00BF0004024003
:1038C00080B584B002AF78600023009300200549E2
:1038D00001220123FDF778FB002318460837BD4677
:1038E00080BD00BF0004024080B584B002AF7860A4
:1038F000002300930020054901220223FDF764FB09
:10390000002318460837BD4680BD00BF00040240B2
:1039100080B582B000AF78600448102103F05EFCEF
:10392000034618460837BD4680BD00BF0010024060
:1039300080B582B000AF786039603B68002B04D15D
:103940000548102103F072FC03E00348102103F046
:103950005FFC0837BD4680BD0010024080B582B0D4
:1039600000AF78600448102103F01EFC034618469F
:103970000837BD4680BD00BF0010024080B584B04E
:1039800002AF786000230093002005491022002335
:10399000FDF71AFB002318460837BD4680BD00BF5F
:1039A0000010024080B584B002AF7860002300931D
:1039B0000120054910220023FDF706FB00231846CD
:1039C0000837BD4680BD00BF0010024080B584B0FE
:1039D00002AF7860002300930020054910220123E4
:1039E000FDF7F2FA002318460837BD4680BD00BF38
:1039F0000010024080B584B002AF786000230093CD
:103A00000020054910220223FDF7DEFA00231846A4
:103A10000837BD4680BD00BF0010024080B582B0AF
:103A200000AF78600448042103F0D8FB0346184631
:103A30000837BD4680BD00BF0010024080B582B08F
:103A400000AF786039603B68002B04D10548042141
:103A500003F0ECFB03E00348042103F0D9FB083733
:103A6000BD4680BD0010024080B582B000AF7860D6
:103A70000448042103F098FB034618460837BD4666
:103A800080BD00BF0010024080B584B002AF7860F6
:103A9000002300930020054904220023FDF794FA37
:103AA000002318460837BD4680BD00BF0010024005
:103AB00080B584B002AF78600023009301200549EF
:103AC00004220023FDF780FA002318460837BD467C
:103AD00080BD00BF0010024080B584B002AF7860A6
:103AE000002300930020054904220123FDF76CFA0E
:103AF000002318460837BD4680BD00BF00100240B5
:103B000080B584B002AF786000230093002005499F
:103B100004220223FDF758FA002318460837BD4651
:103B200080BD00BF0010024080B582B000AF786059
:103B300004484FF4807103F051FB034618460837E0
:103B4000BD4680BD0010024080B582B000AF7860F5
:103B500039603B68002B05D106484FF4807103F0B3
:103B600065FB04E003484FF4807103F051FB083714
:103B7000BD4680BD0010024080B582B000AF7860C5
:103B800004484FF4807103F00FFB034618460837D2
:103B9000BD4680BD0010024080B584B002AF7860A1
:103BA00000230093002005494FF480720023FDF7A5
:103BB0000BFA002318460837BD4680BD00100240AE
:103BC00080B584B002AF78600023009301200549DE
:103BD0004FF480720023FDF7F7F9002318460837E9
:103BE000BD4680BD0010024080B584B002AF786051
:103BF00000230093002005494FF480720123FDF754
:103C0000E3F9002318460837BD4680BD0010024086
:103C100080B584B002AF786000230093002005498E
:103C20004FF480720223FDF7CFF9002318460837BE
:103C3000BD4680BD0010024080B582B000AF786004
:103C40000448082103F0CAFA034618460837BD465F
:103C500080BD00BF0010024080B582B000AF786028
:103C600039603B68002B04D10548082103F0DEFAD7
:103C700003E00348082103F0CBFA0837BD4680BDB6
:103C80000010024080B582B000AF7860044808217F
:103C900003F08AFA034618460837BD4680BD00BFC8
:103CA0000010024080B584B002AF7860002300931A
:103CB0000020054908220023FDF786F90023184655
:103CC0000837BD4680BD00BF0010024080B584B0FB
:103CD00002AF7860002300930120054908220023E9
:103CE000FDF772F9002318460837BD4680BD00BFB6
:103CF0000010024080B584B002AF786000230093CA
:103D00000020054908220123FDF75EF9002318462B
:103D10000837BD4680BD00BF0010024080B584B0AA
:103D200002AF786000230093002005490822022397
:103D3000FDF74AF9002318460837BD4680BD00BF8D
:103D40000010024080B582B000AF786004482021A6
:103D500003F044FA034618460837BD4680BD00BF4D
:103D60000008024080B582B000AF786039603B68DF
:103D7000002B04D10548202103F058FA03E0034842
:103D8000202103F045FA0837BD4680BD00080240F7
:103D900080B582B000AF78600448202103F004FAB7
:103DA000034618460837BD4680BD00BF00080240E4
:103DB00080B584B002AF78600023009300200549ED
:103DC00020220023FDF700F9002318460837BD46DE
:103DD00080BD00BF0008024080B584B002AF7860AB
:103DE0007B680222DA60002300930120044920222C
:103DF0000023FDF7E9F8002318460837BD4680BDCB
:103E00000008024080B584B002AF786000230093C0
:103E10000020054920220123FDF7D6F8002318468B
:103E20000837BD4680BD00BF0008024080B584B0A1
:103E300002AF78600023009300200549202202236E
:103E4000FDF7C2F8002318460837BD4680BD00BF05
:103E50000008024080B582B000AF786004480221BB
:103E600003F0BCF9034618460837BD4680BD00BFC5
:103E70000008024080B582B000AF786039603B68CE
:103E8000002B04D10548022103F0D0F903E00348D8
:103E9000022103F0BDF90837BD4680BD000802408D
:103EA00080B582B000AF78600448022103F07CF94D
:103EB000034618460837BD4680BD00BF00080240D3
:103EC00080B584B002AF78600023009300200549DC
:103ED00002220023FDF778F8002318460837BD4674
:103EE00080BD00BF0008024080B584B002AF78609A
:103EF0007B680222DA600023009301200449022239
:103F00000023FDF761F8002318460837BD4680BD41
:103F10000008024080B584B002AF786000230093AF
:103F20000020054902220123FDF74EF80023184620
:103F30000837BD4680BD00BF0008024080B584B090
:103F400002AF78600023009300200549022202237B
:103F5000FDF73AF8002318460837BD4680BD00BF7C
:103F60000008024080B582B000AF786004480421A8
:103F700003F034F9034618460837BD4680BD00BF3C
:103F80000008024080B582B000AF786039603B68BD
:103F9000002B04D10548042103F048F903E003484D
:103FA000042103F035F90837BD4680BD0008024002
:103FB00080B582B000AF78600448042103F0F4F8C3
:103FC000034618460837BD4680BD00BF00080240C2
:103FD00080B584B002AF78600023009300200549CB
:103FE00004220023FCF7F0FF002318460837BD46E3
:103FF00080BD00BF0008024080B584B002AF786089
:104000007B680222DA600023009301200449042225
:104010000023FCF7D9FF002318460837BD4680BDB2
:104020000008024080B584B002AF7860002300939E
:104030000020054904220123FCF7C6FF002318468F
:104040000837BD4680BD00BF0008024080B584B07F
:1040500002AF786000230093002005490422022368
:10406000FCF7B2FF002318460837BD4680BD00BFED
:104070000008024080B582B000AF78600448082193
:1040800003F0ACF8034618460837BD4680BD00BFB4
:104090000008024080B582B000AF786039603B68AC
:1040A000002B04D10548082103F0C0F803E00348C1
:1040B000082103F0ADF80837BD4680BD0008024076
:1040C00080B582B000AF78600448082103F06CF836
:1040D000034618460837BD4680BD00BF00080240B1
:1040E00080B584B002AF78600023009300200549BA
:1040F00008220023FCF768FF002318460837BD4656
:1041000080BD00BF0008024080B584B002AF786077
:104110007B680222DA600023009301200449082210
:104120000023FCF751FF002318460837BD4680BD29
:104130000008024080B584B002AF7860002300938D
:104140000020054908220123FCF73EFF0023184602
:104150000837BD4680BD00BF0008024080B584B06E
:1041600002AF786000230093002005490822022353
:10417000FCF72AFF002318460837BD4680BD00BF64
:104180000008024080B582B000AF7860044810217A
:1041900003F024F8034618460837BD4680BD00BF2B
:1041A0000008024080B582B000AF786039603B689B
:1041B000002B04D10548102103F038F803E0034830
:1041C000102103F025F80837BD4680BD00080240E5
:1041D00080B582B000AF78600448102102F0E4FF9F
:1041E000034618460837BD4680BD00BF00080240A0
:1041F00080B584B002AF78600023009300200549A9
:1042000010220023FCF7E0FE002318460837BD46C5
:1042100080BD00BF0008024080B584B002AF786066
:104220007B680222DA6000230093012004491022F7
:104230000023FCF7C9FE002318460837BD4680BDA1
:104240000008024080B584B002AF7860002300937C
:104250000020054910220123FCF7B6FE0023184672
:104260000837BD4680BD00BF0008024080B584B05D
:1042700002AF78600023009300200549102202233A
:10428000FCF7A2FE002318460837BD4680BD00BFDC
:104290000008024080B582B000AF786004484FF457
:1042A000006102F09BFF034618460837BD4680BDFB
:1042B0000010024080B582B000AF786039603B6882
:1042C000002B05D106484FF4006102F0AFFF04E077
:1042D00003484FF4006102F09BFF0837BD4680BDE4
:1042E0000010024080B582B000AF786004484FF4FF
:1042F000006102F059FF034618460837BD4680BDED
:104300000010024080B584B002AF786000230093B3
:10431000002005494FF400620023FCF755FE0023FE
:1043200018460837BD4680BD0010024080B584B0F5
:1043300002AF78607B680222DA60002300930120DC
:1043400005494FF400620023FCF73EFE00231846A7
:104350000837BD4680BD00BF0010024080B584B064
:1043600002AF786000230093002005494FF40062FB
:104370000123FCF729FE002318460837BD4680BDFF
:104380000010024080B584B002AF78600023009333
:10439000002005494FF400620223FCF715FE0023BC
:1043A00018460837BD4680BD0010024080B582B077
:1043B00000AF78600448402102F010FF0346184621
:1043C0000837BD4680BD00BF0010024080B582B0F6
:1043D00000AF786039603B68002B04D1054840216C
:1043E00002F024FF03E00348402102F011FF0837E8
:1043F000BD4680BD0010024080B582B000AF78603D
:104400000448402102F0D0FE034618460837BD4656
:1044100080BD00BF0010024080B584B002AF78605C
:10442000002300930020054940220023FCF7CCFD27
:10443000002318460837BD4680BD00BF001002406B
:1044400080B584B002AF78607B680222DA60002316
:1044500000930120044940220023FCF7B5FD00230E
:1044600018460837BD4680BD0010024080B584B0B4
:1044700002AF786000230093002005494022012309
:10448000FCF7A2FD002318460837BD4680BD00BFDB
:104490000010024080B584B002AF78600023009322
:1044A0000020054940220223FCF78EFD0023184618
:1044B0000837BD4680BD00BF0010024080B582B005
:1044C00000AF78600448202102F088FE03461846B9
:1044D0000837BD4680BD00BF0010024080B582B0E5
:1044E00000AF786039603B68002B04D1054820217B
:1044F00002F09CFE03E00348202102F089FE083709
:10450000BD4680BD0010024080B582B000AF78602B
:104510000448202102F048FE034618460837BD46ED
:1045200080BD00BF0010024080B584B002AF78604B
:10453000002300930020054920220023FCF744FDBE
:10454000002318460837BD4680BD00BF001002405A
:1045500080B584B002AF78607B680222DA60002305
:1045600000930120044920220023FCF72DFD0023A5
:1045700018460837BD4680BD0010024080B584B0A3
:1045800002AF786000230093002005492022012318
:10459000FCF71AFD002318460837BD4680BD00BF52
:1045A0000010024080B584B002AF78600023009311
:1045B0000020054920220223FCF706FD00231846AF
:1045C0000837BD4680BD00BF0010024080B582B0F4
:1045D00000AF786004484FF4007102F0FFFD03461D
:1045E00018460837BD4680BD0010024080B582B035
:1045F00000AF786039603B68002B05D106484FF466
:10460000007102F013FE04E003484FF4007102F061
:10461000FFFD0837BD4680BD0010024080B582B066
:1046200000AF786004484FF4007102F0BDFD03460E
:1046300018460837BD4680BD0010024080B584B0E2
:1046400002AF786000230093002005494FF4007208
:104650000023FCF7B9FC002318460837BD4680BD8F
:104660000010024080B584B002AF78607B680222FF
:10467000DA6000230093012005494FF40072002303
:10468000FCF7A2FC002318460837BD4680BD00BFDA
:104690000010024080B584B002AF78600023009320
:1046A000002005494FF400720123FCF78DFC002324
:1046B00018460837BD4680BD0010024080B584B062
:1046C00002AF786000230093002005494FF4007288
:1046D0000223FCF779FC002318460837BD4680BD4D
:1046E0000010024080B582B000AF786004484FF4FB
:1046F000804102F073FD034618460837BD4680BD71
:104700000010024080B582B000AF786039603B682D
:10471000002B05D106484FF4804102F087FD04E0EC
:1047200003484FF4804102F073FD0837BD4680BD59
:104730000010024080B582B000AF786004484FF4AA
:10474000804102F031FD034618460837BD4680BD62
:104750000010024080B584B002AF7860002300935F
:10476000002005494FF480420023FCF72DFC002374
:1047700018460837BD4680BD0010024080B584B0A1
:1047800002AF78607B680222DA6000230093012088
:1047900005494FF480420023FCF716FC002318461D
:1047A0000837BD4680BD00BF0010024080B584B010
:1047B00002AF786000230093002005494FF4804247
:1047C0000123FCF701FC002318460837BD4680BDD5
:1047D0000010024080B584B002AF786000230093DF
:1047E000002005494FF480420223FCF7EDFB002333
:1047F00018460837BD4680BD0010024080B582B023
:1048000000AF786004484FF4005102F0E7FC034623
:1048100018460837BD4680BD0010024080B582B002
:1048200000AF786039603B68002B05D106484FF433
:10483000005102F0FBFC04E003484FF4005102F089
:10484000E7FC0837BD4680BD0010024080B582B04D
:1048500000AF786004484FF4005102F0A5FC034615
:1048600018460837BD4680BD0010024080B584B0B0
:1048700002AF786000230093002005494FF40052F6
:104880000023FCF7A1FB002318460837BD4680BD76
:104890000010024080B584B002AF78607B680222CD
:1048A000DA6000230093012005494FF400520023F1
:1048B000FCF78AFB002318460837BD4680BD00BFC1
:1048C0000010024080B584B002AF786000230093EE
:1048D000002005494FF400520123FCF775FB00232B
:1048E00018460837BD4680BD0010024080B584B030
:1048F00002AF786000230093002005494FF4005276
:104900000223FCF761FB002318460837BD4680BD33
:104910000010024080B582B000AF78607B68012251
:10492000DA600448202102F017F9002318460837FE
:10493000BD4680BD00080240A0F10800FFF7EABFB5
:1049400090B583B000AF78600C48202102F0ECF9FC
:1049500004467B681B6848331B68786898470346A1
:10496000184608F09DFF03462046194609F0A0F8B6
:10497000034618460C37BD4690BD00BF00080240F4
:10498000A0F10800FFF7DCBF80B582B000AF78600F
:104990007B680122DA600448022102F0DDF800237E
:1049A00018460837BD4680BD00080240A0F1080047
:1049B000FFF7EABF90B583B000AF78600C480221E2
:1049C00002F0B2F904467B681B6848331B687868BC
:1049D00098470346184608F063FF034620461946E9
:1049E00009F066F8034618460C37BD4690BD00BF77
:1049F00000080240A0F10800FFF7DCBF80B582B0DC
:104A000000AF78607B680122DA600448042102F07C
:104A1000A3F8002318460837BD4680BD00080240B1
:104A2000A0F10800FFF7EABF90B583B000AF78604F
:104A30000C48042102F078F904467B681B6848336F
:104A40001B68786898470346184608F029FF034614
:104A50002046194609F02CF8034618460C37BD4687
:104A600090BD00BF00080240A0F10800FFF7DCBFC6
:104A700080B582B000AF78607B680122DA600448BC
:104A8000082102F069F8002318460837BD4680BDAA
:104A900000080240A0F10800FFF7EABF90B583B01C
:104AA00000AF78600C48082102F03EF904467B68AC
:104AB0001B6848331B68786898470346184608F017
:104AC000EFFE03462046194608F0F2FF034618465B
:104AD0000C37BD4690BD00BF00080240A0F10800A1
:104AE000FFF7DCBF80B582B000AF78607B68012241
:104AF000DA600448102102F02FF800231846083726
:104B0000BD4680BD00080240A0F10800FFF7EABFE3
:104B100090B583B000AF78600C48102102F004F922
:104B200004467B681B6848331B68786898470346CF
:104B3000184608F0B5FE03462046194608F0B8FFAF
:104B4000034618460C37BD4690BD00BF0008024022
:104B5000A0F10800FFF7DCBF80B582B000AF78603D
:104B6000054806494FF44052FCF73EFD0023184625
:104B70000837BD4680BD00BF00080040000C024061
:104B800080B582B000AF78607B681B7A002B05D0BF
:104B90000648FCF7B5FD03465B4203E00348FCF71B
:104BA000AFFD034618460837BD4680BD00080040EB
:104BB00080B582B000AF786004480549C022FCF798
:104BC00013FD002318460837BD4680BD0004004091
:104BD0000000024080B582B000AF78607B681B7A2D
:104BE000002B05D00648FCF78BFD03465B4203E033
:104BF0000348FCF785FD034618460837BD4680BDCF
:104C00000004004080B582B000AF786004480549D8
:104C10000322FCF7E9FC002318460837BD4680BD97
:104C2000000C00400000024080B582B000AF786008
:104C30007B681B7A002B05D00648FCF761FD034614
:104C40005B4203E00348FCF75BFD03461846083768
:104C5000BD4680BD000C004080B586B000AFF86056
:104C6000B9607A60FB680122DA60B86809F032F84E
:104C70000346094809494FF40062FBF749FB034624
:104C80007B61054802217A68FBF7ACFA7B6918461C
:104C90001837BD4680BD00BF000001400010024033
:104CA000A0F10800FFF7D8BF80B582B000AF7860F0
:104CB0003960044802213A68FBF794FA0837BD4688
:104CC00080BD00BF00000140A0F10800FFF7ECBF6D
:104CD00080B582B000AF786004480221FBF7E4FAA7
:104CE000034618460837BD4680BD00BF000001409E
:104CF000A0F10800FFF7ECBF80B586B000AFF86008
:104D0000B9607A60FB680122DA60B86808F0E2FFF7
:104D10000346084808494022FBF7FAFA03467B613C
:104D2000044802217A68FBF75DFA7B691846183758
:104D3000BD4680BD0040014000100240A0F10800C7
:104D4000FFF7DABF80B582B000AF78603960044801
:104D500002213A68FBF746FA0837BD4680BD00BF1E
:104D600000400140A0F10800FFF7ECBF80B582B021
:104D700000AF786004480221FBF796FA0346184614
:104D80000837BD4680BD00BF00400140A0F10800CB
:104D9000FFF7ECBF80B586B000AFF860B9607A600D
:104DA000FB680122DA60B86808F094FF03460848FF
:104DB00008492022FBF7ACFA03467B610448012135
:104DC0007A68FBF70FFA7B6918461837BD4680BD35
:104DD0000040014000100240A0F10800FFF7DABFD8
:104DE00080B582B000AF78603960044801213A682C
:104DF000FBF7F8F90837BD4680BD00BF0040014011
:104E0000A0F10800FFF7ECBF80B582B000AF78607A
:104E100004480121FBF748FA034618460837BD4607
:104E200080BD00BF00400140A0F10800FFF7ECBFCB
:104E300080B586B000AFF860B9607A60FB68012287
:104E4000DA60B86808F046FF0346094809494FF49C
:104E50000072FBF75DFA03467B61054801217A6821
:104E6000FBF7C0F97B6918461837BD4680BD00BF07
:104E70000000014000100240A0F10800FFF7D8BF79
:104E800080B582B000AF78603960044801213A688B
:104E9000FBF7A8F90837BD4680BD00BF0000014000
:104EA000A0F10800FFF7ECBF80B582B000AF7860DA
:104EB00004480121FBF7F8F9034618460837BD46B8
:104EC00080BD00BF00000140A0F10800FFF7ECBF6B
:104ED00080B586B000AFF860B9607A60FB680122E7
:104EE000DA60B86808F0F6FE0346094809494FF44D
:104EF0008042FBF70DFA03467B61054804217A687E
:104F0000FBF770F97B6918461837BD4680BD00BFB6
:104F10000000014000100240A0F10800FFF7D8BFD8
:104F200080B582B000AF78603960044804213A68E7
:104F3000FBF758F90837BD4680BD00BF00000140AF
:104F4000A0F10800FFF7ECBF80B582B000AF786039
:104F500004480421FBF7A8F9034618460837BD4664
:104F600080BD00BF00000140A0F10800FFF7ECBFCA
:104F700080B586B000AFF860B9607A60FB68012246
:104F8000DA60B86808F0A6FE0346094809494FF4FC
:104F90000052FBF7BDF903467B61054803217A689F
:104FA000FBF720F97B6918461837BD4680BD00BF66
:104FB0000000014000100240A0F10800FFF7D8BF38
:104FC00080B582B000AF78603960044803213A6848
:104FD000FBF708F90837BD4680BD00BF000001405F
:104FE000A0F10800FFF7ECBF80B582B000AF786099
:104FF00004480321FBF758F9034618460837BD4615
:1050000080BD00BF00000140A0F10800FFF7ECBF29
:1050100080B586B000AFF860B9607A60FB680122A5
:10502000DA60B86808F056FE0346094809494FF4AB
:105030008042FBF76DF903467B61054802217A68DF
:10504000FBF7D0F87B6918461837BD4680BD00BF16
:105050000004014000040240A0F10800FFF7D8BF9F
:1050600080B582B000AF78603960044802213A68A8
:10507000FBF7B8F80837BD4680BD00BF000401400B
:10508000A0F10800FFF7ECBF80B582B000AF7860F8
:1050900004480221FBF708F9034618460837BD46C5
:1050A00080BD00BF00040140A0F10800FFF7ECBF85
:1050B00080B586B000AFF860B9607A60FB68012205
:1050C000DA60B86808F006FE0346094809494FF45B
:1050D0000042FBF71DF903467B61054803217A680E
:1050E000FBF780F87B6918461837BD4680BD00BFC6
:1050F0000004014000040240A0F10800FFF7D8BFFF
:1051000080B582B000AF78603960044803213A6806
:10511000FBF768F80837BD4680BD00BF00040140BA
:10512000A0F10800FFF7ECBF80B582B000AF786057
:1051300004480321FBF7B8F8034618460837BD4674
:1051400080BD00BF00040140A0F10800FFF7ECBFE4
:1051500080B586B000AFF860B9607A60FB68012264
:10516000DA60B86808F0B6FD03460848084902222C
:10517000FBF7CEF803467B61044803217A68FBF70E
:1051800031F87B6918461837BD4680BD00040140E0
:1051900000040240A0F10800FFF7DABF80B582B03A
:1051A00000AF78603960044803213A68FBF71AF8C9
:1051B0000837BD4680BD00BF00040140A0F10800D3
:1051C000FFF7ECBF80B582B000AF786004480321E0
:1051D000FBF76AF8034618460837BD4680BD00BF96
:1051E00000040140A0F10800FFF7ECBF90B589B0C2
:1051F00004AFF860B9607A603B60BC683B689AB203
:105200003B6A9BB2094900910821019102920393E4
:1052100007482146054A042304F004FC054A7B683C
:105220001360002318461437BD4690BD00000240AD
:10523000004400405009002080B582B000AF786083
:105240000B46FB7000BF0A488021FCF75FFC034659
:10525000002B0CBF01230023DBB2002BF3D1FB7822
:105260009BB203481946FCF7E7FB0837BD4680BDF3
:1052700000440040B0B500AF074B1B681B681C68BA
:10528000054B1D680548FCF7E9FB0346DBB22846E1
:105290001946A047B0BD00BF50090020004400409F
:1052A00080B500AFFFF7E6FF80BD00BF90B589B0C5
:1052B00004AFF860B9607A603B60BC683B689AB242
:1052C0003B6A9BB20A4900914FF40061019102923E
:1052D000039308482146064A4FF4806304F0A2FB7A
:1052E000054A7B681360002318461437BD4690BDFD
:1052F00000040240004800405409002080B582B0FC
:1053000000AF78600B46FB7000BF0A488021FCF7B5
:10531000FDFB0346002B0CBF01230023DBB2002B57
:10532000F3D1FB789BB203481946FCF785FB08379D
:10533000BD4680BD0048004080B582B000AF034646
:10534000FB7100BF0A488021FCF7E0FB0346002BFD
:105350000CBF01230023DBB2002BF3D1FB799BB2FE
:1053600003481946FCF768FB0837BD4680BD00BFFF
:105370000044004090B585B004AF4FF48E700FF03C
:10538000F3FF044622464FF48E73104600211A465E
:105390000AF014F82046FCF73BFE0B4B1C600B4B4D
:1053A00000930823019300230293082303930848E2
:1053B0004FF41651054A042304F034FB0023184629
:1053C0000437BD4690BD00BF5009002000000240D8
:1053D0000044004080B483B000AF78607B68002256
:1053E000C3F804217B680022C3F808217B681846B3
:1053F0000C37BD465DF8047B704700BF80B485B0B4
:1054000000AF78600B46FB707B68D3F808315A1CFC
:10541000114B83FB0213D911D317C91A0B461B0278
:105420000B44D31AFB607B68D3F80421FB689A42D3
:1054300001D101230AE07B68D3F808317A68F97852
:10544000D1547B68FA68C3F8082100231846143742
:10545000BD465DF8047B7047817F807F80B483B058
:1054600000AF78607B68D3F804217B68D3F80831FB
:105470009A4201D1012300E0002318460C37BD46B3
:105480005DF8047B704700BF80B485B000AF7860E2
:105490007B68D3F804217B68D3F808319A4201D1A4
:1054A000002317E07B68D3F804317A68D35CFB7380
:1054B0007B68D3F80431591C094B83FB0123DA11B3
:1054C000CB17D21A13461B021344CA1A7B68C3F8BF
:1054D0000421FB7B18461437BD465DF8047B7047FA
:1054E000817F807F80B483B000AF78607B68094A99
:1054F0001A607B6801225A607B6800221A727B68FE
:105500004FF07E52DA607B6818460C37BD465DF876
:10551000047B7047D802020880B483B000AF786083
:105520007B68044A1A607B6818460C37BD465DF8F4
:10553000047B70470803020880B483B000AF786032
:105540007B68044A1A607B6818460C37BD465DF8D4
:10555000047B7047E802020880B582B000AF786033
:105560007B681846FFF7D8FF7B6808331846FFF7BB
:10557000E3FF7B68064A1A607B68064A9A607B688C
:105580000022DA607B6818460837BD4680BD00BF40
:1055900018F501086CF5010880B582B000AF78609D
:1055A0007B681846FFF7B8FF7B6808331846FFF79B
:1055B000C3FF7B68064A1A607B68064A9A607B686C
:1055C0000022DA607B6818460837BD4680BD00BF00
:1055D000A0F40108F4F4010880B582B000AF78604F
:1055E0007B681846FFF798FF7B6808331846FFF77B
:1055F000A3FF7B68064A1A607B68064A9A607B684C
:105600000022DA607B6818460837BD4680BD00BFBF
:1056100028F401087CF401082DE9B0438EB000AFF6
:1056200078607B68D3F8A030184607F0F9FC024692
:105630000B46C7A1D1E9000107F092FB02460B46D9
:105640001046194608F022F802467B68C3F8B020DD
:105650007B68D3F8A030184607F0E2FC02460B4600
:10566000BDA1D1E9000107F07BFB02460B461046C5
:10567000194608F00BF802467B68C3F8B4207B6833
:10568000D3F8A030184607F0CBFC02460B46B4A175
:10569000D1E9000107F064FB02460B4610461946AB
:1056A00007F0F4FF02467B68C3F8B8207B68D3F8A4
:1056B0008430184607F0B4FC04460D467B68D3F8E6
:1056C000B030184607F0ACFC02460B4610461946AF
:1056D00004F03CFE02460B462046294607F0F4FC47
:1056E00002460B4614461D467B68D3F888207B682B
:1056F000D3F88C301046194608F01CF803461846BB
:10570000994908F021F90346184607F089FC02463A
:105710000B462046294607F025FB02460B4610465D
:10572000194607F0B3FF02467B68C3F8A4207B68E4
:10573000D3F8B430184607F073FC02460B46104607
:10574000194604F003FE04460D467B68D3F8843006
:10575000184607F065FC02460B462046294607F02E
:10576000B3FC02460B4614461D467B68D3F8B430A2
:10577000184607F055FC02460B461046194604F041
:10578000E5FD804689467B68D3F88030184607F0EF
:1057900047FC02460B464046494607F095FC024648
:1057A0000B462046294607F0DDFA02460B46104616
:1057B00019464FF000026D4B07F086FC02460B467F
:1057C00014461D467B68D3F888207B68D3F88C305C
:1057D0001046194607F0AEFF03461846624908F026
:1057E000B3F80346184607F01BFC02460B4620465A
:1057F000294607F0B7FA02460B461046194607F04D
:1058000045FF02467B68C3F8A8207B68D3F8B83010
:10581000184607F005FC02460B461046194604F0F0
:1058200095FD04460D467B68D3F88430184607F092
:10583000F7FB02460B462046294607F045FC024688
:105840000B4614461D467B68D3F8B830184607F05F
:10585000E7FB02460B461046194604F077FD8046EA
:1058600089467B68D3F88030184607F0D9FB02469A
:105870000B464046494607F027FC02460B462046A9
:10588000294607F06FFA02460B46104619464FF0BC
:105890000002364B07F018FC02460B4614461D4624
:1058A0007B68D3F888207B68D3F88C301046194683
:1058B00007F040FF034618462B4908F045F8034619
:1058C000184607F0ADFB02460B462046294607F076
:1058D00049FA02460B461046194607F0D7FE024623
:1058E0007B68C3F8AC207B68D3F8A43023F0004277
:1058F0007B689A667B689A6E7B68D3F8A83023F041
:1059000000431046194608F0BDF90346002B06D0A7
:105910007B68D3F8A83023F000427B689A667B68E6
:105920009A6E7B68D3F8AC3023F0004310461946DA
:1059300008F0A8F90346002B1AD07B68D3F8AC30E6
:1059400023F000427B689A6612E000BFAFF300804C
:10595000182D4454FB21F93F65732D3852C1E0BF27
:1059600065732D3852C100C00000C84200002440B9
:105970007B689B6E18464FF0000108F079F90346EA
:10598000002B27D17B68D3F8A4207B689B6E104640
:10599000194608F08DF803461A467B685A677B68FB
:1059A000D3F8A8207B689B6E1046194608F080F853
:1059B00003461A467B68DA677B68D3F8AC207B68BD
:1059C0009B6E1046194608F073F803461A467B682A
:1059D0009A670BE07B684FF000025A677B684FF0D4
:1059E00000029A677B684FF00002DA677B6803F178
:1059F000BC017B6803F1C4027B68D43307F1280043
:105A0000FBF78AFB7B6803F1DC017B6803F1E402AE
:105A10007B68F43307F11800FBF77EFB7B6803F12A
:105A2000FC017B6803F582727B6803F58A7307F1DA
:105A30000800FBF771FB07F1280318461C49FBF728
:105A400083FB07F1180318461949FBF77DFB07F1A3
:105A5000080318461649FBF777FB7B685B6F07F175
:105A6000280210461946FBF7BBFB07F1280318462E
:105A7000FBF7CAFB7B689B6F07F1180210461946BB
:105A8000FBF7AEFB07F118031846FBF7BDFB7B687D
:105A9000DB6F07F1080210461946FBF7A1FB07F17F
:105AA00008031846FBF7B0FB786800F005F8B8E586
:105AB00000401C46AFF300802DE9B04384B002AF34
:105AC00078607B6803F58E731846FFF759F8034634
:105AD000184607F0E5FE03461846B74907F0E8FF09
